{
  "_format": "hh-sol-artifact-1",
  "contractName": "CertificateContract",
  "sourceName": "contracts/Certi.sol",
  "abi": [
    {
      "anonymous": false,
      "inputs": [
        {
          "indexed": true,
          "internalType": "address",
          "name": "revokedBy",
          "type": "address"
        },
        {
          "indexed": true,
          "internalType": "bytes32",
          "name": "id",
          "type": "bytes32"
        }
      ],
      "name": "CertificateRevoke",
      "type": "event"
    },
    {
      "anonymous": false,
      "inputs": [
        {
          "indexed": true,
          "internalType": "address",
          "name": "issuedBy",
          "type": "address"
        },
        {
          "indexed": true,
          "internalType": "address",
          "name": "issuedTo",
          "type": "address"
        },
        {
          "indexed": true,
          "internalType": "bytes32",
          "name": "id",
          "type": "bytes32"
        }
      ],
      "name": "CertificateWrite",
      "type": "event"
    },
    {
      "anonymous": false,
      "inputs": [
        {
          "indexed": true,
          "internalType": "address",
          "name": "previousOwner",
          "type": "address"
        },
        {
          "indexed": true,
          "internalType": "address",
          "name": "newOwner",
          "type": "address"
        }
      ],
      "name": "OwnershipTransferred",
      "type": "event"
    },
    {
      "inputs": [
        {
          "internalType": "address",
          "name": "user",
          "type": "address"
        }
      ],
      "name": "addUser",
      "outputs": [],
      "stateMutability": "nonpayable",
      "type": "function"
    },
    {
      "inputs": [
        {
          "internalType": "bytes32",
          "name": "",
          "type": "bytes32"
        }
      ],
      "name": "certificates",
      "outputs": [
        {
          "internalType": "bytes32",
          "name": "id",
          "type": "bytes32"
        },
        {
          "internalType": "uint256",
          "name": "createdAt",
          "type": "uint256"
        },
        {
          "internalType": "uint256",
          "name": "expireAt",
          "type": "uint256"
        },
        {
          "internalType": "address",
          "name": "issuedBy",
          "type": "address"
        },
        {
          "internalType": "address",
          "name": "issuedTo",
          "type": "address"
        },
        {
          "internalType": "bytes32",
          "name": "dataHash",
          "type": "bytes32"
        }
      ],
      "stateMutability": "view",
      "type": "function"
    },
    {
      "inputs": [
        {
          "internalType": "bytes32",
          "name": "id",
          "type": "bytes32"
        },
        {
          "internalType": "bytes32",
          "name": "dataHash",
          "type": "bytes32"
        },
        {
          "internalType": "address",
          "name": "issuedTo",
          "type": "address"
        },
        {
          "internalType": "uint256",
          "name": "expireAt",
          "type": "uint256"
        }
      ],
      "name": "create",
      "outputs": [],
      "stateMutability": "nonpayable",
      "type": "function"
    },
    {
      "inputs": [
        {
          "internalType": "address",
          "name": "user",
          "type": "address"
        }
      ],
      "name": "getCertificatesByUser",
      "outputs": [
        {
          "internalType": "bytes32[]",
          "name": "",
          "type": "bytes32[]"
        }
      ],
      "stateMutability": "view",
      "type": "function"
    },
    {
      "inputs": [
        {
          "internalType": "address",
          "name": "user",
          "type": "address"
        }
      ],
      "name": "isAdmin",
      "outputs": [
        {
          "internalType": "bool",
          "name": "",
          "type": "bool"
        }
      ],
      "stateMutability": "view",
      "type": "function"
    },
    {
      "inputs": [
        {
          "internalType": "address",
          "name": "",
          "type": "address"
        }
      ],
      "name": "isIssuer",
      "outputs": [
        {
          "internalType": "bool",
          "name": "",
          "type": "bool"
        }
      ],
      "stateMutability": "view",
      "type": "function"
    },
    {
      "inputs": [
        {
          "internalType": "address",
          "name": "user",
          "type": "address"
        }
      ],
      "name": "isOrgIssuer",
      "outputs": [
        {
          "internalType": "bool",
          "name": "",
          "type": "bool"
        }
      ],
      "stateMutability": "view",
      "type": "function"
    },
    {
      "inputs": [
        {
          "internalType": "bytes32",
          "name": "",
          "type": "bytes32"
        }
      ],
      "name": "isRevoked",
      "outputs": [
        {
          "internalType": "bool",
          "name": "",
          "type": "bool"
        }
      ],
      "stateMutability": "view",
      "type": "function"
    },
    {
      "inputs": [
        {
          "internalType": "address",
          "name": "",
          "type": "address"
        },
        {
          "internalType": "address",
          "name": "",
          "type": "address"
        }
      ],
      "name": "orgUsers",
      "outputs": [
        {
          "internalType": "bool",
          "name": "",
          "type": "bool"
        }
      ],
      "stateMutability": "view",
      "type": "function"
    },
    {
      "inputs": [],
      "name": "owner",
      "outputs": [
        {
          "internalType": "address",
          "name": "",
          "type": "address"
        }
      ],
      "stateMutability": "view",
      "type": "function"
    },
    {
      "inputs": [],
      "name": "renounceOwnership",
      "outputs": [],
      "stateMutability": "nonpayable",
      "type": "function"
    },
    {
      "inputs": [
        {
          "internalType": "bytes32",
          "name": "id",
          "type": "bytes32"
        }
      ],
      "name": "revoke",
      "outputs": [],
      "stateMutability": "nonpayable",
      "type": "function"
    },
    {
      "inputs": [
        {
          "internalType": "address",
          "name": "_issuer",
          "type": "address"
        },
        {
          "internalType": "bool",
          "name": "_allowed",
          "type": "bool"
        }
      ],
      "name": "setIssuer",
      "outputs": [],
      "stateMutability": "nonpayable",
      "type": "function"
    },
    {
      "inputs": [
        {
          "internalType": "address",
          "name": "newOwner",
          "type": "address"
        }
      ],
      "name": "transferOwnership",
      "outputs": [],
      "stateMutability": "nonpayable",
      "type": "function"
    },
    {
      "inputs": [
        {
          "internalType": "address",
          "name": "",
          "type": "address"
        },
        {
          "internalType": "uint256",
          "name": "",
          "type": "uint256"
        }
      ],
      "name": "userCertificates",
      "outputs": [
        {
          "internalType": "bytes32",
          "name": "",
          "type": "bytes32"
        }
      ],
      "stateMutability": "view",
      "type": "function"
    },
    {
      "inputs": [
        {
          "internalType": "bytes32",
          "name": "id",
          "type": "bytes32"
        },
        {
          "internalType": "bytes32",
          "name": "dataHash",
          "type": "bytes32"
        }
      ],
      "name": "verify",
      "outputs": [
        {
          "internalType": "bool",
          "name": "",
          "type": "bool"
        }
      ],
      "stateMutability": "view",
      "type": "function"
    }
  ],
  "bytecode": "0x608060405234801561001057600080fd5b5061002d61002261003260201b60201c565b61003a60201b60201c565b6100fe565b600033905090565b60008060009054906101000a900473ffffffffffffffffffffffffffffffffffffffff169050816000806101000a81548173ffffffffffffffffffffffffffffffffffffffff021916908373ffffffffffffffffffffffffffffffffffffffff1602179055508173ffffffffffffffffffffffffffffffffffffffff168173ffffffffffffffffffffffffffffffffffffffff167f8be0079c531659141344cd1fd0a4f28419497f9722a3daafe3b4186f6b6457e060405160405180910390a35050565b611aaa8061010d6000396000f3fe608060405234801561001057600080fd5b50600436106101005760003560e01c80634f16d772116100975780638da5cb5b116100665780638da5cb5b146102e8578063b75c7dc614610306578063c7c155e414610322578063f2fde38b1461035257610100565b80634f16d7721461025d578063715018a614610279578063742f068814610283578063877b9a67146102b857610100565b8063421b2d8b116100d3578063421b2d8b146101c55780634294857f146101e1578063495289be146102115780634e8fee001461022d57610100565b80630175f889146101055780630783b4801461013557806324d7806c14610165578063291ee7fa14610195575b600080fd5b61011f600480360381019061011a9190611208565b61036e565b60405161012c9190611261565b60405180910390f35b61014f600480360381019061014a919061127c565b61039f565b60405161015c91906112d7565b60405180910390f35b61017f600480360381019061017a91906112f2565b6103ce565b60405161018c91906112d7565b60405180910390f35b6101af60048036038101906101aa91906112f2565b61040d565b6040516101bc91906112d7565b60405180910390f35b6101df60048036038101906101da91906112f2565b610463565b005b6101fb60048036038101906101f6919061134b565b610587565b60405161020891906112d7565b60405180910390f35b61022b600480360381019061022691906113a4565b6105a7565b005b610247600480360381019061024291906113e4565b61060a565b60405161025491906112d7565b60405180910390f35b61027760048036038101906102729190611424565b610780565b005b610281610b71565b005b61029d6004803603810190610298919061134b565b610b85565b6040516102af969594939291906114a9565b60405180910390f35b6102d260048036038101906102cd91906112f2565b610c01565b6040516102df91906112d7565b60405180910390f35b6102f0610c21565b6040516102fd919061150a565b60405180910390f35b610320600480360381019061031b919061134b565b610c4a565b005b61033c600480360381019061033791906112f2565b610f0b565b60405161034991906115e3565b60405180910390f35b61036c600480360381019061036791906112f2565b610fa2565b005b6005602052816000526040600020818154811061038a57600080fd5b90600052602060002001600091509150505481565b60046020528160005260406000206020528060005260406000206000915091509054906101000a900460ff1681565b60006103d8610c21565b73ffffffffffffffffffffffffffffffffffffffff168273ffffffffffffffffffffffffffffffffffffffff16149050919050565b6000600360008373ffffffffffffffffffffffffffffffffffffffff1673ffffffffffffffffffffffffffffffffffffffff16815260200190815260200160002060009054906101000a900460ff169050919050565b600360003373ffffffffffffffffffffffffffffffffffffffff1673ffffffffffffffffffffffffffffffffffffffff16815260200190815260200160002060009054906101000a900460ff166104ef576040517f08c379a00000000000000000000000000000000000000000000000000000000081526004016104e690611662565b60405180910390fd5b6001600460003373ffffffffffffffffffffffffffffffffffffffff1673ffffffffffffffffffffffffffffffffffffffff16815260200190815260200160002060008373ffffffffffffffffffffffffffffffffffffffff1673ffffffffffffffffffffffffffffffffffffffff16815260200190815260200160002060006101000a81548160ff02191690831515021790555050565b60026020528060005260406000206000915054906101000a900460ff1681565b6105af611025565b80600360008473ffffffffffffffffffffffffffffffffffffffff1673ffffffffffffffffffffffffffffffffffffffff16815260200190815260200160002060006101000a81548160ff0219169083151502179055505050565b600080600160008581526020019081526020016000206040518060c00160405290816000820154815260200160018201548152602001600282015481526020016003820160009054906101000a900473ffffffffffffffffffffffffffffffffffffffff1673ffffffffffffffffffffffffffffffffffffffff1673ffffffffffffffffffffffffffffffffffffffff1681526020016004820160009054906101000a900473ffffffffffffffffffffffffffffffffffffffff1673ffffffffffffffffffffffffffffffffffffffff1673ffffffffffffffffffffffffffffffffffffffff1681526020016005820154815250509050600081602001510361071757600091505061077a565b6002600085815260200190815260200160002060009054906101000a900460ff161561074757600091505061077a565b6000816040015114158015610760575080604001514210155b1561076f57600091505061077a565b828160a00151149150505b92915050565b600360003373ffffffffffffffffffffffffffffffffffffffff1673ffffffffffffffffffffffffffffffffffffffff16815260200190815260200160002060009054906101000a900460ff1661080c576040517f08c379a0000000000000000000000000000000000000000000000000000000008152600401610803906116ce565b60405180910390fd5b600460003373ffffffffffffffffffffffffffffffffffffffff1673ffffffffffffffffffffffffffffffffffffffff16815260200190815260200160002060008373ffffffffffffffffffffffffffffffffffffffff1673ffffffffffffffffffffffffffffffffffffffff16815260200190815260200160002060009054906101000a900460ff166108d5576040517f08c379a00000000000000000000000000000000000000000000000000000000081526004016108cc9061173a565b60405180910390fd5b600060016000868152602001908152602001600020600101541461092e576040517f08c379a0000000000000000000000000000000000000000000000000000000008152600401610925906117a6565b60405180910390fd5b60004290506000821461097e5780821161097d576040517f08c379a000000000000000000000000000000000000000000000000000000000815260040161097490611812565b60405180910390fd5b5b60006040518060c001604052808781526020018381526020018481526020013373ffffffffffffffffffffffffffffffffffffffff1681526020018573ffffffffffffffffffffffffffffffffffffffff168152602001868152509050806001600088815260200190815260200160002060008201518160000155602082015181600101556040820151816002015560608201518160030160006101000a81548173ffffffffffffffffffffffffffffffffffffffff021916908373ffffffffffffffffffffffffffffffffffffffff16021790555060808201518160040160006101000a81548173ffffffffffffffffffffffffffffffffffffffff021916908373ffffffffffffffffffffffffffffffffffffffff16021790555060a08201518160050155905050600560008573ffffffffffffffffffffffffffffffffffffffff1673ffffffffffffffffffffffffffffffffffffffff168152602001908152602001600020869080600181540180825580915050600190039060005260206000200160009091909190915055858473ffffffffffffffffffffffffffffffffffffffff163373ffffffffffffffffffffffffffffffffffffffff167f690de79187a12b4d1dc6dbfbb10abc8c81efb685953ff28677a66001dde1921760405160405180910390a4505050505050565b610b79611025565b610b8360006110a3565b565b60016020528060005260406000206000915090508060000154908060010154908060020154908060030160009054906101000a900473ffffffffffffffffffffffffffffffffffffffff16908060040160009054906101000a900473ffffffffffffffffffffffffffffffffffffffff16908060050154905086565b60036020528060005260406000206000915054906101000a900460ff1681565b60008060009054906101000a900473ffffffffffffffffffffffffffffffffffffffff16905090565b6000600160008381526020019081526020016000206040518060c00160405290816000820154815260200160018201548152602001600282015481526020016003820160009054906101000a900473ffffffffffffffffffffffffffffffffffffffff1673ffffffffffffffffffffffffffffffffffffffff1673ffffffffffffffffffffffffffffffffffffffff1681526020016004820160009054906101000a900473ffffffffffffffffffffffffffffffffffffffff1673ffffffffffffffffffffffffffffffffffffffff1673ffffffffffffffffffffffffffffffffffffffff1681526020016005820154815250509050806060015173ffffffffffffffffffffffffffffffffffffffff163373ffffffffffffffffffffffffffffffffffffffff161480610db05750610d81610c21565b73ffffffffffffffffffffffffffffffffffffffff163373ffffffffffffffffffffffffffffffffffffffff16145b610def576040517f08c379a0000000000000000000000000000000000000000000000000000000008152600401610de69061187e565b60405180910390fd5b6000816020015103610e36576040517f08c379a0000000000000000000000000000000000000000000000000000000008152600401610e2d906118ea565b60405180910390fd5b6002600083815260200190815260200160002060009054906101000a900460ff1615610e97576040517f08c379a0000000000000000000000000000000000000000000000000000000008152600401610e8e90611956565b60405180910390fd5b60016002600084815260200190815260200160002060006101000a81548160ff021916908315150217905550813373ffffffffffffffffffffffffffffffffffffffff167fc294e248583a7bb9a6d0371d5e0e2ca64319f73ed8379cc7ec54fb14492f4ed360405160405180910390a35050565b6060600560008373ffffffffffffffffffffffffffffffffffffffff1673ffffffffffffffffffffffffffffffffffffffff168152602001908152602001600020805480602002602001604051908101604052809291908181526020018280548015610f9657602002820191906000526020600020905b815481526020019060010190808311610f82575b50505050509050919050565b610faa611025565b600073ffffffffffffffffffffffffffffffffffffffff168173ffffffffffffffffffffffffffffffffffffffff1603611019576040517f08c379a0000000000000000000000000000000000000000000000000000000008152600401611010906119e8565b60405180910390fd5b611022816110a3565b50565b61102d611167565b73ffffffffffffffffffffffffffffffffffffffff1661104b610c21565b73ffffffffffffffffffffffffffffffffffffffff16146110a1576040517f08c379a000000000000000000000000000000000000000000000000000000000815260040161109890611a54565b60405180910390fd5b565b60008060009054906101000a900473ffffffffffffffffffffffffffffffffffffffff169050816000806101000a81548173ffffffffffffffffffffffffffffffffffffffff021916908373ffffffffffffffffffffffffffffffffffffffff1602179055508173ffffffffffffffffffffffffffffffffffffffff168173ffffffffffffffffffffffffffffffffffffffff167f8be0079c531659141344cd1fd0a4f28419497f9722a3daafe3b4186f6b6457e060405160405180910390a35050565b600033905090565b600080fd5b600073ffffffffffffffffffffffffffffffffffffffff82169050919050565b600061119f82611174565b9050919050565b6111af81611194565b81146111ba57600080fd5b50565b6000813590506111cc816111a6565b92915050565b6000819050919050565b6111e5816111d2565b81146111f057600080fd5b50565b600081359050611202816111dc565b92915050565b6000806040838503121561121f5761121e61116f565b5b600061122d858286016111bd565b925050602061123e858286016111f3565b9150509250929050565b6000819050919050565b61125b81611248565b82525050565b60006020820190506112766000830184611252565b92915050565b600080604083850312156112935761129261116f565b5b60006112a1858286016111bd565b92505060206112b2858286016111bd565b9150509250929050565b60008115159050919050565b6112d1816112bc565b82525050565b60006020820190506112ec60008301846112c8565b92915050565b6000602082840312156113085761130761116f565b5b6000611316848285016111bd565b91505092915050565b61132881611248565b811461133357600080fd5b50565b6000813590506113458161131f565b92915050565b6000602082840312156113615761136061116f565b5b600061136f84828501611336565b91505092915050565b611381816112bc565b811461138c57600080fd5b50565b60008135905061139e81611378565b92915050565b600080604083850312156113bb576113ba61116f565b5b60006113c9858286016111bd565b92505060206113da8582860161138f565b9150509250929050565b600080604083850312156113fb576113fa61116f565b5b600061140985828601611336565b925050602061141a85828601611336565b9150509250929050565b6000806000806080858703121561143e5761143d61116f565b5b600061144c87828801611336565b945050602061145d87828801611336565b935050604061146e878288016111bd565b925050606061147f878288016111f3565b91505092959194509250565b611494816111d2565b82525050565b6114a381611194565b82525050565b600060c0820190506114be6000830189611252565b6114cb602083018861148b565b6114d8604083018761148b565b6114e5606083018661149a565b6114f2608083018561149a565b6114ff60a0830184611252565b979650505050505050565b600060208201905061151f600083018461149a565b92915050565b600081519050919050565b600082825260208201905092915050565b6000819050602082019050919050565b61155a81611248565b82525050565b600061156c8383611551565b60208301905092915050565b6000602082019050919050565b600061159082611525565b61159a8185611530565b93506115a583611541565b8060005b838110156115d65781516115bd8882611560565b97506115c883611578565b9250506001810190506115a9565b5085935050505092915050565b600060208201905081810360008301526115fd8184611585565b905092915050565b600082825260208201905092915050565b7f4f6e6c79206973737565722063616e2061646420757365720000000000000000600082015250565b600061164c601883611605565b915061165782611616565b602082019050919050565b6000602082019050818103600083015261167b8161163f565b9050919050565b7f4e6f7420617574686f72697a656420746f206973737565000000000000000000600082015250565b60006116b8601783611605565b91506116c382611682565b602082019050919050565b600060208201905081810360008301526116e7816116ab565b9050919050565b7f5573657220646f6573206e6f742062656c6f6e6720746f2074686973204f7267600082015250565b6000611724602083611605565b915061172f826116ee565b602082019050919050565b6000602082019050818103600083015261175381611717565b9050919050565b7f4365727469666963617465204944206578697374730000000000000000000000600082015250565b6000611790601583611605565b915061179b8261175a565b602082019050919050565b600060208201905081810360008301526117bf81611783565b9050919050565b7f457870697279206d757374206265206675747572650000000000000000000000600082015250565b60006117fc601583611605565b9150611807826117c6565b602082019050919050565b6000602082019050818103600083015261182b816117ef565b9050919050565b7f4e6f7420617574686f72697a656420746f207265766f6b650000000000000000600082015250565b6000611868601883611605565b915061187382611832565b602082019050919050565b600060208201905081810360008301526118978161185b565b9050919050565b7f436572746966696361746520646f6573206e6f74206578697374000000000000600082015250565b60006118d4601a83611605565b91506118df8261189e565b602082019050919050565b60006020820190508181036000830152611903816118c7565b9050919050565b7f416c7265616479207265766f6b65640000000000000000000000000000000000600082015250565b6000611940600f83611605565b915061194b8261190a565b602082019050919050565b6000602082019050818103600083015261196f81611933565b9050919050565b7f4f776e61626c653a206e6577206f776e657220697320746865207a65726f206160008201527f6464726573730000000000000000000000000000000000000000000000000000602082015250565b60006119d2602683611605565b91506119dd82611976565b604082019050919050565b60006020820190508181036000830152611a01816119c5565b9050919050565b7f4f776e61626c653a2063616c6c6572206973206e6f7420746865206f776e6572600082015250565b6000611a3e602083611605565b9150611a4982611a08565b602082019050919050565b60006020820190508181036000830152611a6d81611a31565b905091905056fea2646970667358221220660b2adbfc43ab7c83a18b52469d1e65a50ec5f1980e7e3cda1f7cdefdbe9bcf64736f6c634300081c0033",
  "linkReferences": {},
  "deployedLinkReferences": {}
}