{
  "_format": "hh-sol-artifact-1",
  "contractName": "CertificateContract",
  "sourceName": "contracts/Certificate.sol",
  "abi": [
    {
      "anonymous": false,
      "inputs": [
        {
          "indexed": true,
          "internalType": "address",
          "name": "revokedBy",
          "type": "address"
        },
        {
          "indexed": true,
          "internalType": "bytes32",
          "name": "id",
          "type": "bytes32"
        }
      ],
      "name": "CertificateRevoke",
      "type": "event"
    },
    {
      "anonymous": false,
      "inputs": [
        {
          "indexed": true,
          "internalType": "address",
          "name": "issuedBy",
          "type": "address"
        },
        {
          "indexed": true,
          "internalType": "address",
          "name": "issuedTo",
          "type": "address"
        },
        {
          "indexed": true,
          "internalType": "bytes32",
          "name": "id",
          "type": "bytes32"
        }
      ],
      "name": "CertificateWrite",
      "type": "event"
    },
    {
      "anonymous": false,
      "inputs": [
        {
          "indexed": true,
          "internalType": "address",
          "name": "previousOwner",
          "type": "address"
        },
        {
          "indexed": true,
          "internalType": "address",
          "name": "newOwner",
          "type": "address"
        }
      ],
      "name": "OwnershipTransferred",
      "type": "event"
    },
    {
      "inputs": [
        {
          "internalType": "bytes32",
          "name": "",
          "type": "bytes32"
        }
      ],
      "name": "certificates",
      "outputs": [
        {
          "internalType": "bytes32",
          "name": "id",
          "type": "bytes32"
        },
        {
          "internalType": "uint256",
          "name": "createdAt",
          "type": "uint256"
        },
        {
          "internalType": "uint256",
          "name": "expireAt",
          "type": "uint256"
        },
        {
          "internalType": "address",
          "name": "issuedBy",
          "type": "address"
        },
        {
          "internalType": "address",
          "name": "issuedTo",
          "type": "address"
        },
        {
          "internalType": "bytes32",
          "name": "dataHash",
          "type": "bytes32"
        }
      ],
      "stateMutability": "view",
      "type": "function"
    },
    {
      "inputs": [
        {
          "internalType": "bytes32",
          "name": "id",
          "type": "bytes32"
        },
        {
          "internalType": "bytes32",
          "name": "dataHash",
          "type": "bytes32"
        },
        {
          "internalType": "address",
          "name": "issuedTo",
          "type": "address"
        },
        {
          "internalType": "uint256",
          "name": "expireAt",
          "type": "uint256"
        }
      ],
      "name": "create",
      "outputs": [],
      "stateMutability": "nonpayable",
      "type": "function"
    },
    {
      "inputs": [
        {
          "internalType": "address",
          "name": "",
          "type": "address"
        }
      ],
      "name": "isIssuer",
      "outputs": [
        {
          "internalType": "bool",
          "name": "",
          "type": "bool"
        }
      ],
      "stateMutability": "view",
      "type": "function"
    },
    {
      "inputs": [
        {
          "internalType": "bytes32",
          "name": "",
          "type": "bytes32"
        }
      ],
      "name": "isRevoked",
      "outputs": [
        {
          "internalType": "bool",
          "name": "",
          "type": "bool"
        }
      ],
      "stateMutability": "view",
      "type": "function"
    },
    {
      "inputs": [],
      "name": "owner",
      "outputs": [
        {
          "internalType": "address",
          "name": "",
          "type": "address"
        }
      ],
      "stateMutability": "view",
      "type": "function"
    },
    {
      "inputs": [],
      "name": "renounceOwnership",
      "outputs": [],
      "stateMutability": "nonpayable",
      "type": "function"
    },
    {
      "inputs": [
        {
          "internalType": "bytes32",
          "name": "id",
          "type": "bytes32"
        }
      ],
      "name": "revoke",
      "outputs": [],
      "stateMutability": "nonpayable",
      "type": "function"
    },
    {
      "inputs": [
        {
          "internalType": "address",
          "name": "_issuer",
          "type": "address"
        },
        {
          "internalType": "bool",
          "name": "_allowed",
          "type": "bool"
        }
      ],
      "name": "setIssuer",
      "outputs": [],
      "stateMutability": "nonpayable",
      "type": "function"
    },
    {
      "inputs": [
        {
          "internalType": "address",
          "name": "newOwner",
          "type": "address"
        }
      ],
      "name": "transferOwnership",
      "outputs": [],
      "stateMutability": "nonpayable",
      "type": "function"
    },
    {
      "inputs": [
        {
          "internalType": "bytes32",
          "name": "id",
          "type": "bytes32"
        },
        {
          "internalType": "bytes32",
          "name": "dataHash",
          "type": "bytes32"
        }
      ],
      "name": "verify",
      "outputs": [
        {
          "internalType": "bool",
          "name": "",
          "type": "bool"
        }
      ],
      "stateMutability": "view",
      "type": "function"
    }
  ],
  "bytecode": "0x608060405234801561001057600080fd5b5061002d61002261003260201b60201c565b61003a60201b60201c565b6100fe565b600033905090565b60008060009054906101000a900473ffffffffffffffffffffffffffffffffffffffff169050816000806101000a81548173ffffffffffffffffffffffffffffffffffffffff021916908373ffffffffffffffffffffffffffffffffffffffff1602179055508173ffffffffffffffffffffffffffffffffffffffff168173ffffffffffffffffffffffffffffffffffffffff167f8be0079c531659141344cd1fd0a4f28419497f9722a3daafe3b4186f6b6457e060405160405180910390a35050565b6112a38061010d6000396000f3fe608060405234801561001057600080fd5b506004361061009e5760003560e01c8063742f068811610066578063742f068814610145578063877b9a671461017a5780638da5cb5b146101aa578063b75c7dc6146101c8578063f2fde38b146101e45761009e565b80634294857f146100a3578063495289be146100d35780634e8fee00146100ef5780634f16d7721461011f578063715018a61461013b575b600080fd5b6100bd60048036038101906100b89190610baa565b610200565b6040516100ca9190610bf2565b60405180910390f35b6100ed60048036038101906100e89190610c97565b610220565b005b61010960048036038101906101049190610cd7565b610283565b6040516101169190610bf2565b60405180910390f35b61013960048036038101906101349190610d4d565b6103f9565b005b6101436106bb565b005b61015f600480360381019061015a9190610baa565b6106cf565b60405161017196959493929190610de1565b60405180910390f35b610194600480360381019061018f9190610e42565b61074b565b6040516101a19190610bf2565b60405180910390f35b6101b261076b565b6040516101bf9190610e6f565b60405180910390f35b6101e260048036038101906101dd9190610baa565b610794565b005b6101fe60048036038101906101f99190610e42565b6109a2565b005b60026020528060005260406000206000915054906101000a900460ff1681565b610228610a25565b80600360008473ffffffffffffffffffffffffffffffffffffffff1673ffffffffffffffffffffffffffffffffffffffff16815260200190815260200160002060006101000a81548160ff0219169083151502179055505050565b600080600160008581526020019081526020016000206040518060c00160405290816000820154815260200160018201548152602001600282015481526020016003820160009054906101000a900473ffffffffffffffffffffffffffffffffffffffff1673ffffffffffffffffffffffffffffffffffffffff1673ffffffffffffffffffffffffffffffffffffffff1681526020016004820160009054906101000a900473ffffffffffffffffffffffffffffffffffffffff1673ffffffffffffffffffffffffffffffffffffffff1673ffffffffffffffffffffffffffffffffffffffff168152602001600582015481525050905060008160200151036103905760009150506103f3565b6002600085815260200190815260200160002060009054906101000a900460ff16156103c05760009150506103f3565b60008160400151141580156103d9575080604001514210155b156103e85760009150506103f3565b828160a00151149150505b92915050565b600360003373ffffffffffffffffffffffffffffffffffffffff1673ffffffffffffffffffffffffffffffffffffffff16815260200190815260200160002060009054906101000a900460ff16610485576040517f08c379a000000000000000000000000000000000000000000000000000000000815260040161047c90610f0d565b60405180910390fd5b60006001600086815260200190815260200160002060010154146104de576040517f08c379a00000000000000000000000000000000000000000000000000000000081526004016104d590610f79565b60405180910390fd5b60004290506000821461052e5780821161052d576040517f08c379a00000000000000000000000000000000000000000000000000000000081526004016105249061100b565b60405180910390fd5b5b60006040518060c001604052808781526020018381526020018481526020013373ffffffffffffffffffffffffffffffffffffffff1681526020018573ffffffffffffffffffffffffffffffffffffffff168152602001868152509050806001600088815260200190815260200160002060008201518160000155602082015181600101556040820151816002015560608201518160030160006101000a81548173ffffffffffffffffffffffffffffffffffffffff021916908373ffffffffffffffffffffffffffffffffffffffff16021790555060808201518160040160006101000a81548173ffffffffffffffffffffffffffffffffffffffff021916908373ffffffffffffffffffffffffffffffffffffffff16021790555060a08201518160050155905050858473ffffffffffffffffffffffffffffffffffffffff163373ffffffffffffffffffffffffffffffffffffffff167f690de79187a12b4d1dc6dbfbb10abc8c81efb685953ff28677a66001dde1921760405160405180910390a4505050505050565b6106c3610a25565b6106cd6000610aa3565b565b60016020528060005260406000206000915090508060000154908060010154908060020154908060030160009054906101000a900473ffffffffffffffffffffffffffffffffffffffff16908060040160009054906101000a900473ffffffffffffffffffffffffffffffffffffffff16908060050154905086565b60036020528060005260406000206000915054906101000a900460ff1681565b60008060009054906101000a900473ffffffffffffffffffffffffffffffffffffffff16905090565b6001600082815260200190815260200160002060030160009054906101000a900473ffffffffffffffffffffffffffffffffffffffff1673ffffffffffffffffffffffffffffffffffffffff163373ffffffffffffffffffffffffffffffffffffffff161480610836575061080761076b565b73ffffffffffffffffffffffffffffffffffffffff163373ffffffffffffffffffffffffffffffffffffffff16145b610875576040517f08c379a000000000000000000000000000000000000000000000000000000000815260040161086c90611077565b60405180910390fd5b60006001600083815260200190815260200160002060010154036108ce576040517f08c379a00000000000000000000000000000000000000000000000000000000081526004016108c5906110e3565b60405180910390fd5b6002600082815260200190815260200160002060009054906101000a900460ff161561092f576040517f08c379a00000000000000000000000000000000000000000000000000000000081526004016109269061114f565b60405180910390fd5b60016002600083815260200190815260200160002060006101000a81548160ff021916908315150217905550803373ffffffffffffffffffffffffffffffffffffffff167fc294e248583a7bb9a6d0371d5e0e2ca64319f73ed8379cc7ec54fb14492f4ed360405160405180910390a350565b6109aa610a25565b600073ffffffffffffffffffffffffffffffffffffffff168173ffffffffffffffffffffffffffffffffffffffff1603610a19576040517f08c379a0000000000000000000000000000000000000000000000000000000008152600401610a10906111e1565b60405180910390fd5b610a2281610aa3565b50565b610a2d610b67565b73ffffffffffffffffffffffffffffffffffffffff16610a4b61076b565b73ffffffffffffffffffffffffffffffffffffffff1614610aa1576040517f08c379a0000000000000000000000000000000000000000000000000000000008152600401610a989061124d565b60405180910390fd5b565b60008060009054906101000a900473ffffffffffffffffffffffffffffffffffffffff169050816000806101000a81548173ffffffffffffffffffffffffffffffffffffffff021916908373ffffffffffffffffffffffffffffffffffffffff1602179055508173ffffffffffffffffffffffffffffffffffffffff168173ffffffffffffffffffffffffffffffffffffffff167f8be0079c531659141344cd1fd0a4f28419497f9722a3daafe3b4186f6b6457e060405160405180910390a35050565b600033905090565b600080fd5b6000819050919050565b610b8781610b74565b8114610b9257600080fd5b50565b600081359050610ba481610b7e565b92915050565b600060208284031215610bc057610bbf610b6f565b5b6000610bce84828501610b95565b91505092915050565b60008115159050919050565b610bec81610bd7565b82525050565b6000602082019050610c076000830184610be3565b92915050565b600073ffffffffffffffffffffffffffffffffffffffff82169050919050565b6000610c3882610c0d565b9050919050565b610c4881610c2d565b8114610c5357600080fd5b50565b600081359050610c6581610c3f565b92915050565b610c7481610bd7565b8114610c7f57600080fd5b50565b600081359050610c9181610c6b565b92915050565b60008060408385031215610cae57610cad610b6f565b5b6000610cbc85828601610c56565b9250506020610ccd85828601610c82565b9150509250929050565b60008060408385031215610cee57610ced610b6f565b5b6000610cfc85828601610b95565b9250506020610d0d85828601610b95565b9150509250929050565b6000819050919050565b610d2a81610d17565b8114610d3557600080fd5b50565b600081359050610d4781610d21565b92915050565b60008060008060808587031215610d6757610d66610b6f565b5b6000610d7587828801610b95565b9450506020610d8687828801610b95565b9350506040610d9787828801610c56565b9250506060610da887828801610d38565b91505092959194509250565b610dbd81610b74565b82525050565b610dcc81610d17565b82525050565b610ddb81610c2d565b82525050565b600060c082019050610df66000830189610db4565b610e036020830188610dc3565b610e106040830187610dc3565b610e1d6060830186610dd2565b610e2a6080830185610dd2565b610e3760a0830184610db4565b979650505050505050565b600060208284031215610e5857610e57610b6f565b5b6000610e6684828501610c56565b91505092915050565b6000602082019050610e846000830184610dd2565b92915050565b600082825260208201905092915050565b7f4e6f7420617574686f72697a656420746f20697373756520636572746966696360008201527f6174657300000000000000000000000000000000000000000000000000000000602082015250565b6000610ef7602483610e8a565b9150610f0282610e9b565b604082019050919050565b60006020820190508181036000830152610f2681610eea565b9050919050565b7f436572746966696361746520494420616c726561647920657869737473000000600082015250565b6000610f63601d83610e8a565b9150610f6e82610f2d565b602082019050919050565b60006020820190508181036000830152610f9281610f56565b9050919050565b7f4578706972792064617465206d75737420626520696e2074686520667574757260008201527f6500000000000000000000000000000000000000000000000000000000000000602082015250565b6000610ff5602183610e8a565b915061100082610f99565b604082019050919050565b6000602082019050818103600083015261102481610fe8565b9050919050565b7f4e6f7420617574686f72697a656420746f207265766f6b650000000000000000600082015250565b6000611061601883610e8a565b915061106c8261102b565b602082019050919050565b6000602082019050818103600083015261109081611054565b9050919050565b7f436572746966696361746520646f6573206e6f74206578697374000000000000600082015250565b60006110cd601a83610e8a565b91506110d882611097565b602082019050919050565b600060208201905081810360008301526110fc816110c0565b9050919050565b7f436572746966696361746520616c7265616479207265766f6b65640000000000600082015250565b6000611139601b83610e8a565b915061114482611103565b602082019050919050565b600060208201905081810360008301526111688161112c565b9050919050565b7f4f776e61626c653a206e6577206f776e657220697320746865207a65726f206160008201527f6464726573730000000000000000000000000000000000000000000000000000602082015250565b60006111cb602683610e8a565b91506111d68261116f565b604082019050919050565b600060208201905081810360008301526111fa816111be565b9050919050565b7f4f776e61626c653a2063616c6c6572206973206e6f7420746865206f776e6572600082015250565b6000611237602083610e8a565b915061124282611201565b602082019050919050565b600060208201905081810360008301526112668161122a565b905091905056fea264697066735822122030d4d0c93a142d475aa0ff0da6bf82509063aeead7bd93754fa843c24a04863164736f6c634300081c0033",
  "linkReferences": {},
  "deployedLinkReferences": {}
}