{
  "_format": "hh-sol-artifact-1",
  "contractName": "CertificateContract",
  "sourceName": "contracts/Certi.sol",
  "abi": [
    {
      "anonymous": false,
      "inputs": [
        {
          "indexed": true,
          "internalType": "address",
          "name": "revokedBy",
          "type": "address"
        },
        {
          "indexed": true,
          "internalType": "bytes32",
          "name": "id",
          "type": "bytes32"
        }
      ],
      "name": "CertificateRevoke",
      "type": "event"
    },
    {
      "anonymous": false,
      "inputs": [
        {
          "indexed": true,
          "internalType": "address",
          "name": "issuedBy",
          "type": "address"
        },
        {
          "indexed": true,
          "internalType": "address",
          "name": "issuedTo",
          "type": "address"
        },
        {
          "indexed": true,
          "internalType": "bytes32",
          "name": "id",
          "type": "bytes32"
        }
      ],
      "name": "CertificateWrite",
      "type": "event"
    },
    {
      "anonymous": false,
      "inputs": [
        {
          "indexed": true,
          "internalType": "address",
          "name": "previousOwner",
          "type": "address"
        },
        {
          "indexed": true,
          "internalType": "address",
          "name": "newOwner",
          "type": "address"
        }
      ],
      "name": "OwnershipTransferred",
      "type": "event"
    },
    {
      "inputs": [
        {
          "internalType": "address",
          "name": "user",
          "type": "address"
        }
      ],
      "name": "addUser",
      "outputs": [],
      "stateMutability": "nonpayable",
      "type": "function"
    },
    {
      "inputs": [
        {
          "internalType": "bytes32",
          "name": "",
          "type": "bytes32"
        }
      ],
      "name": "certificates",
      "outputs": [
        {
          "internalType": "bytes32",
          "name": "id",
          "type": "bytes32"
        },
        {
          "internalType": "uint256",
          "name": "createdAt",
          "type": "uint256"
        },
        {
          "internalType": "uint256",
          "name": "expireAt",
          "type": "uint256"
        },
        {
          "internalType": "address",
          "name": "issuedBy",
          "type": "address"
        },
        {
          "internalType": "address",
          "name": "issuedTo",
          "type": "address"
        },
        {
          "internalType": "bytes32",
          "name": "dataHash",
          "type": "bytes32"
        }
      ],
      "stateMutability": "view",
      "type": "function"
    },
    {
      "inputs": [
        {
          "internalType": "bytes32",
          "name": "id",
          "type": "bytes32"
        },
        {
          "internalType": "bytes32",
          "name": "dataHash",
          "type": "bytes32"
        },
        {
          "internalType": "address",
          "name": "issuedTo",
          "type": "address"
        },
        {
          "internalType": "uint256",
          "name": "expireAt",
          "type": "uint256"
        }
      ],
      "name": "create",
      "outputs": [],
      "stateMutability": "nonpayable",
      "type": "function"
    },
    {
      "inputs": [],
      "name": "getAllIssuers",
      "outputs": [
        {
          "internalType": "address[]",
          "name": "",
          "type": "address[]"
        }
      ],
      "stateMutability": "view",
      "type": "function"
    },
    {
      "inputs": [
        {
          "internalType": "address",
          "name": "user",
          "type": "address"
        }
      ],
      "name": "getCertificatesByUser",
      "outputs": [
        {
          "components": [
            {
              "internalType": "bytes32",
              "name": "id",
              "type": "bytes32"
            },
            {
              "internalType": "uint256",
              "name": "createdAt",
              "type": "uint256"
            },
            {
              "internalType": "uint256",
              "name": "expireAt",
              "type": "uint256"
            },
            {
              "internalType": "address",
              "name": "issuedBy",
              "type": "address"
            },
            {
              "internalType": "address",
              "name": "issuedTo",
              "type": "address"
            },
            {
              "internalType": "bytes32",
              "name": "dataHash",
              "type": "bytes32"
            }
          ],
          "internalType": "struct CertificateContract.Certificate[]",
          "name": "",
          "type": "tuple[]"
        }
      ],
      "stateMutability": "view",
      "type": "function"
    },
    {
      "inputs": [],
      "name": "getOrgUsers",
      "outputs": [
        {
          "internalType": "address[]",
          "name": "",
          "type": "address[]"
        }
      ],
      "stateMutability": "view",
      "type": "function"
    },
    {
      "inputs": [],
      "name": "isAdmin",
      "outputs": [
        {
          "internalType": "bool",
          "name": "",
          "type": "bool"
        }
      ],
      "stateMutability": "view",
      "type": "function"
    },
    {
      "inputs": [
        {
          "internalType": "address",
          "name": "",
          "type": "address"
        }
      ],
      "name": "isIssuer",
      "outputs": [
        {
          "internalType": "bool",
          "name": "",
          "type": "bool"
        }
      ],
      "stateMutability": "view",
      "type": "function"
    },
    {
      "inputs": [],
      "name": "isOrgIssuer",
      "outputs": [
        {
          "internalType": "bool",
          "name": "",
          "type": "bool"
        }
      ],
      "stateMutability": "view",
      "type": "function"
    },
    {
      "inputs": [
        {
          "internalType": "bytes32",
          "name": "",
          "type": "bytes32"
        }
      ],
      "name": "isRevoked",
      "outputs": [
        {
          "internalType": "bool",
          "name": "",
          "type": "bool"
        }
      ],
      "stateMutability": "view",
      "type": "function"
    },
    {
      "inputs": [
        {
          "internalType": "uint256",
          "name": "",
          "type": "uint256"
        }
      ],
      "name": "issuers",
      "outputs": [
        {
          "internalType": "address",
          "name": "",
          "type": "address"
        }
      ],
      "stateMutability": "view",
      "type": "function"
    },
    {
      "inputs": [
        {
          "internalType": "address",
          "name": "",
          "type": "address"
        },
        {
          "internalType": "address",
          "name": "",
          "type": "address"
        },
        {
          "internalType": "uint256",
          "name": "",
          "type": "uint256"
        }
      ],
      "name": "orgUserCertificates",
      "outputs": [
        {
          "internalType": "bytes32",
          "name": "id",
          "type": "bytes32"
        },
        {
          "internalType": "uint256",
          "name": "createdAt",
          "type": "uint256"
        },
        {
          "internalType": "uint256",
          "name": "expireAt",
          "type": "uint256"
        },
        {
          "internalType": "address",
          "name": "issuedBy",
          "type": "address"
        },
        {
          "internalType": "address",
          "name": "issuedTo",
          "type": "address"
        },
        {
          "internalType": "bytes32",
          "name": "dataHash",
          "type": "bytes32"
        }
      ],
      "stateMutability": "view",
      "type": "function"
    },
    {
      "inputs": [
        {
          "internalType": "address",
          "name": "",
          "type": "address"
        },
        {
          "internalType": "uint256",
          "name": "",
          "type": "uint256"
        }
      ],
      "name": "orgUserList",
      "outputs": [
        {
          "internalType": "address",
          "name": "",
          "type": "address"
        }
      ],
      "stateMutability": "view",
      "type": "function"
    },
    {
      "inputs": [
        {
          "internalType": "address",
          "name": "",
          "type": "address"
        },
        {
          "internalType": "address",
          "name": "",
          "type": "address"
        }
      ],
      "name": "orgUsers",
      "outputs": [
        {
          "internalType": "bool",
          "name": "",
          "type": "bool"
        }
      ],
      "stateMutability": "view",
      "type": "function"
    },
    {
      "inputs": [],
      "name": "owner",
      "outputs": [
        {
          "internalType": "address",
          "name": "",
          "type": "address"
        }
      ],
      "stateMutability": "view",
      "type": "function"
    },
    {
      "inputs": [],
      "name": "renounceOwnership",
      "outputs": [],
      "stateMutability": "nonpayable",
      "type": "function"
    },
    {
      "inputs": [
        {
          "internalType": "bytes32",
          "name": "id",
          "type": "bytes32"
        }
      ],
      "name": "revokeCertificate",
      "outputs": [],
      "stateMutability": "nonpayable",
      "type": "function"
    },
    {
      "inputs": [
        {
          "internalType": "address",
          "name": "user",
          "type": "address"
        }
      ],
      "name": "revokeUser",
      "outputs": [],
      "stateMutability": "nonpayable",
      "type": "function"
    },
    {
      "inputs": [
        {
          "internalType": "address",
          "name": "_issuer",
          "type": "address"
        },
        {
          "internalType": "bool",
          "name": "_allowed",
          "type": "bool"
        }
      ],
      "name": "setIssuer",
      "outputs": [],
      "stateMutability": "nonpayable",
      "type": "function"
    },
    {
      "inputs": [
        {
          "internalType": "address",
          "name": "newOwner",
          "type": "address"
        }
      ],
      "name": "transferOwnership",
      "outputs": [],
      "stateMutability": "nonpayable",
      "type": "function"
    },
    {
      "inputs": [
        {
          "internalType": "address",
          "name": "",
          "type": "address"
        },
        {
          "internalType": "uint256",
          "name": "",
          "type": "uint256"
        }
      ],
      "name": "userCertificates",
      "outputs": [
        {
          "internalType": "bytes32",
          "name": "id",
          "type": "bytes32"
        },
        {
          "internalType": "uint256",
          "name": "createdAt",
          "type": "uint256"
        },
        {
          "internalType": "uint256",
          "name": "expireAt",
          "type": "uint256"
        },
        {
          "internalType": "address",
          "name": "issuedBy",
          "type": "address"
        },
        {
          "internalType": "address",
          "name": "issuedTo",
          "type": "address"
        },
        {
          "internalType": "bytes32",
          "name": "dataHash",
          "type": "bytes32"
        }
      ],
      "stateMutability": "view",
      "type": "function"
    },
    {
      "inputs": [
        {
          "internalType": "bytes32",
          "name": "id",
          "type": "bytes32"
        },
        {
          "internalType": "bytes32",
          "name": "dataHash",
          "type": "bytes32"
        }
      ],
      "name": "verify",
      "outputs": [
        {
          "internalType": "bool",
          "name": "",
          "type": "bool"
        }
      ],
      "stateMutability": "view",
      "type": "function"
    }
  ],
  "bytecode": "0x608060405234801561001057600080fd5b5061002d61002261003260201b60201c565b61003a60201b60201c565b6100fe565b600033905090565b60008060009054906101000a900473ffffffffffffffffffffffffffffffffffffffff169050816000806101000a81548173ffffffffffffffffffffffffffffffffffffffff021916908373ffffffffffffffffffffffffffffffffffffffff1602179055508173ffffffffffffffffffffffffffffffffffffffff168173ffffffffffffffffffffffffffffffffffffffff167f8be0079c531659141344cd1fd0a4f28419497f9722a3daafe3b4186f6b6457e060405160405180910390a35050565b612ab78061010d6000396000f3fe608060405234801561001057600080fd5b50600436106101425760003560e01c8063742f0688116100b8578063b6a449bc1161007c578063b6a449bc146103be578063b6db75a0146103dc578063c6cbc52a146103fa578063c7c155e414610416578063ef097fc414610446578063f2fde38b1461046257610142565b8063742f0688146102d65780637577496b1461030b578063877b9a67146103405780638da5cb5b146103705780639ec9478c1461038e57610142565b8063495289be1161010a578063495289be146102165780634c32c35c146102325780634e8fee00146102505780634f16d7721461028057806361ec30c41461029c578063715018a6146102cc57610142565b80630175f889146101475780630783b4801461017c578063421b2d8b146101ac5780634294857f146101c8578063489eff2e146101f8575b600080fd5b610161600480360381019061015c9190611ead565b61047e565b60405161017396959493929190611f24565b60405180910390f35b61019660048036038101906101919190611f85565b610517565b6040516101a39190611fe0565b60405180910390f35b6101c660048036038101906101c19190611ffb565b610546565b005b6101e260048036038101906101dd9190612054565b610799565b6040516101ef9190611fe0565b60405180910390f35b6102006107b9565b60405161020d919061213f565b60405180910390f35b610230600480360381019061022b919061218d565b610910565b005b61023a610b69565b604051610247919061213f565b60405180910390f35b61026a600480360381019061026591906121cd565b610c6c565b6040516102779190611fe0565b60405180910390f35b61029a6004803603810190610295919061220d565b610de2565b005b6102b660048036038101906102b19190612274565b61128e565b6040516102c391906122a1565b60405180910390f35b6102d46112cd565b005b6102f060048036038101906102eb9190612054565b6112e1565b60405161030296959493929190611f24565b60405180910390f35b610325600480360381019061032091906122bc565b61135d565b60405161033796959493929190611f24565b60405180910390f35b61035a60048036038101906103559190611ffb565b611403565b6040516103679190611fe0565b60405180910390f35b610378611423565b60405161038591906122a1565b60405180910390f35b6103a860048036038101906103a39190611ead565b61144c565b6040516103b591906122a1565b60405180910390f35b6103c661149a565b6040516103d39190611fe0565b60405180910390f35b6103e46114ee565b6040516103f19190611fe0565b60405180910390f35b610414600480360381019061040f9190612054565b61152b565b005b610430600480360381019061042b9190611ffb565b6117ec565b60405161043d9190612457565b60405180910390f35b610460600480360381019061045b9190611ffb565b61195e565b005b61047c60048036038101906104779190611ffb565b611c47565b005b6008602052816000526040600020818154811061049a57600080fd5b9060005260206000209060060201600091509150508060000154908060010154908060020154908060030160009054906101000a900473ffffffffffffffffffffffffffffffffffffffff16908060040160009054906101000a900473ffffffffffffffffffffffffffffffffffffffff16908060050154905086565b60056020528160005260406000206020528060005260406000206000915091509054906101000a900460ff1681565b600360003373ffffffffffffffffffffffffffffffffffffffff1673ffffffffffffffffffffffffffffffffffffffff16815260200190815260200160002060009054906101000a900460ff166105d2576040517f08c379a00000000000000000000000000000000000000000000000000000000081526004016105c9906124d6565b60405180910390fd5b600560003373ffffffffffffffffffffffffffffffffffffffff1673ffffffffffffffffffffffffffffffffffffffff16815260200190815260200160002060008273ffffffffffffffffffffffffffffffffffffffff1673ffffffffffffffffffffffffffffffffffffffff16815260200190815260200160002060009054906101000a900460ff16610796576001600560003373ffffffffffffffffffffffffffffffffffffffff1673ffffffffffffffffffffffffffffffffffffffff16815260200190815260200160002060008373ffffffffffffffffffffffffffffffffffffffff1673ffffffffffffffffffffffffffffffffffffffff16815260200190815260200160002060006101000a81548160ff021916908315150217905550600660003373ffffffffffffffffffffffffffffffffffffffff1673ffffffffffffffffffffffffffffffffffffffff168152602001908152602001600020819080600181540180825580915050600190039060005260206000200160009091909190916101000a81548173ffffffffffffffffffffffffffffffffffffffff021916908373ffffffffffffffffffffffffffffffffffffffff1602179055505b50565b60026020528060005260406000206000915054906101000a900460ff1681565b6060600360003373ffffffffffffffffffffffffffffffffffffffff1673ffffffffffffffffffffffffffffffffffffffff16815260200190815260200160002060009054906101000a900460ff16610847576040517f08c379a000000000000000000000000000000000000000000000000000000000815260040161083e90612542565b60405180910390fd5b600660003373ffffffffffffffffffffffffffffffffffffffff1673ffffffffffffffffffffffffffffffffffffffff16815260200190815260200160002080548060200260200160405190810160405280929190818152602001828054801561090657602002820191906000526020600020905b8160009054906101000a900473ffffffffffffffffffffffffffffffffffffffff1673ffffffffffffffffffffffffffffffffffffffff16815260200190600101908083116108bc575b5050505050905090565b610918611cca565b80600360008473ffffffffffffffffffffffffffffffffffffffff1673ffffffffffffffffffffffffffffffffffffffff16815260200190815260200160002060006101000a81548160ff02191690831515021790555080156109dd576004829080600181540180825580915050600190039060005260206000200160009091909190916101000a81548173ffffffffffffffffffffffffffffffffffffffff021916908373ffffffffffffffffffffffffffffffffffffffff160217905550610b65565b60005b600480549050811015610b63578273ffffffffffffffffffffffffffffffffffffffff1660048281548110610a1857610a17612562565b5b9060005260206000200160009054906101000a900473ffffffffffffffffffffffffffffffffffffffff1673ffffffffffffffffffffffffffffffffffffffff1603610b565760046001600480549050610a7291906125c0565b81548110610a8357610a82612562565b5b9060005260206000200160009054906101000a900473ffffffffffffffffffffffffffffffffffffffff1660048281548110610ac257610ac1612562565b5b9060005260206000200160006101000a81548173ffffffffffffffffffffffffffffffffffffffff021916908373ffffffffffffffffffffffffffffffffffffffff1602179055506004805480610b1c57610b1b6125f4565b5b6001900381819060005260206000200160006101000a81549073ffffffffffffffffffffffffffffffffffffffff02191690559055610b63565b80806001019150506109e0565b505b5050565b6060610b73611423565b73ffffffffffffffffffffffffffffffffffffffff163373ffffffffffffffffffffffffffffffffffffffff1614610be0576040517f08c379a0000000000000000000000000000000000000000000000000000000008152600401610bd790612542565b60405180910390fd5b6004805480602002602001604051908101604052809291908181526020018280548015610c6257602002820191906000526020600020905b8160009054906101000a900473ffffffffffffffffffffffffffffffffffffffff1673ffffffffffffffffffffffffffffffffffffffff1681526020019060010190808311610c18575b5050505050905090565b600080600160008581526020019081526020016000206040518060c00160405290816000820154815260200160018201548152602001600282015481526020016003820160009054906101000a900473ffffffffffffffffffffffffffffffffffffffff1673ffffffffffffffffffffffffffffffffffffffff1673ffffffffffffffffffffffffffffffffffffffff1681526020016004820160009054906101000a900473ffffffffffffffffffffffffffffffffffffffff1673ffffffffffffffffffffffffffffffffffffffff1673ffffffffffffffffffffffffffffffffffffffff16815260200160058201548152505090506000816020015103610d79576000915050610ddc565b6002600085815260200190815260200160002060009054906101000a900460ff1615610da9576000915050610ddc565b6000816040015114158015610dc2575080604001514210155b15610dd1576000915050610ddc565b828160a00151149150505b92915050565b600360003373ffffffffffffffffffffffffffffffffffffffff1673ffffffffffffffffffffffffffffffffffffffff16815260200190815260200160002060009054906101000a900460ff16610e6e576040517f08c379a0000000000000000000000000000000000000000000000000000000008152600401610e659061266f565b60405180910390fd5b600560003373ffffffffffffffffffffffffffffffffffffffff1673ffffffffffffffffffffffffffffffffffffffff16815260200190815260200160002060008373ffffffffffffffffffffffffffffffffffffffff1673ffffffffffffffffffffffffffffffffffffffff16815260200190815260200160002060009054906101000a900460ff16610f37576040517f08c379a0000000000000000000000000000000000000000000000000000000008152600401610f2e906126db565b60405180910390fd5b6000600160008681526020019081526020016000206001015414610f90576040517f08c379a0000000000000000000000000000000000000000000000000000000008152600401610f8790612747565b60405180910390fd5b600042905060008214610fe057808211610fdf576040517f08c379a0000000000000000000000000000000000000000000000000000000008152600401610fd6906127b3565b60405180910390fd5b5b60006040518060c001604052808781526020018381526020018481526020013373ffffffffffffffffffffffffffffffffffffffff1681526020018573ffffffffffffffffffffffffffffffffffffffff168152602001868152509050806001600088815260200190815260200160002060008201518160000155602082015181600101556040820151816002015560608201518160030160006101000a81548173ffffffffffffffffffffffffffffffffffffffff021916908373ffffffffffffffffffffffffffffffffffffffff16021790555060808201518160040160006101000a81548173ffffffffffffffffffffffffffffffffffffffff021916908373ffffffffffffffffffffffffffffffffffffffff16021790555060a08201518160050155905050600860008573ffffffffffffffffffffffffffffffffffffffff1673ffffffffffffffffffffffffffffffffffffffff16815260200190815260200160002081908060018154018082558091505060019003906000526020600020906006020160009091909190915060008201518160000155602082015181600101556040820151816002015560608201518160030160006101000a81548173ffffffffffffffffffffffffffffffffffffffff021916908373ffffffffffffffffffffffffffffffffffffffff16021790555060808201518160040160006101000a81548173ffffffffffffffffffffffffffffffffffffffff021916908373ffffffffffffffffffffffffffffffffffffffff16021790555060a082015181600501555050858473ffffffffffffffffffffffffffffffffffffffff163373ffffffffffffffffffffffffffffffffffffffff167f690de79187a12b4d1dc6dbfbb10abc8c81efb685953ff28677a66001dde1921760405160405180910390a4505050505050565b6004818154811061129e57600080fd5b906000526020600020016000915054906101000a900473ffffffffffffffffffffffffffffffffffffffff1681565b6112d5611cca565b6112df6000611d48565b565b60016020528060005260406000206000915090508060000154908060010154908060020154908060030160009054906101000a900473ffffffffffffffffffffffffffffffffffffffff16908060040160009054906101000a900473ffffffffffffffffffffffffffffffffffffffff16908060050154905086565b6007602052826000526040600020602052816000526040600020818154811061138557600080fd5b906000526020600020906006020160009250925050508060000154908060010154908060020154908060030160009054906101000a900473ffffffffffffffffffffffffffffffffffffffff16908060040160009054906101000a900473ffffffffffffffffffffffffffffffffffffffff16908060050154905086565b60036020528060005260406000206000915054906101000a900460ff1681565b60008060009054906101000a900473ffffffffffffffffffffffffffffffffffffffff16905090565b6006602052816000526040600020818154811061146857600080fd5b906000526020600020016000915091509054906101000a900473ffffffffffffffffffffffffffffffffffffffff1681565b6000600360003373ffffffffffffffffffffffffffffffffffffffff1673ffffffffffffffffffffffffffffffffffffffff16815260200190815260200160002060009054906101000a900460ff16905090565b60006114f8611423565b73ffffffffffffffffffffffffffffffffffffffff163373ffffffffffffffffffffffffffffffffffffffff1614905090565b6000600160008381526020019081526020016000206040518060c00160405290816000820154815260200160018201548152602001600282015481526020016003820160009054906101000a900473ffffffffffffffffffffffffffffffffffffffff1673ffffffffffffffffffffffffffffffffffffffff1673ffffffffffffffffffffffffffffffffffffffff1681526020016004820160009054906101000a900473ffffffffffffffffffffffffffffffffffffffff1673ffffffffffffffffffffffffffffffffffffffff1673ffffffffffffffffffffffffffffffffffffffff1681526020016005820154815250509050806060015173ffffffffffffffffffffffffffffffffffffffff163373ffffffffffffffffffffffffffffffffffffffff1614806116915750611662611423565b73ffffffffffffffffffffffffffffffffffffffff163373ffffffffffffffffffffffffffffffffffffffff16145b6116d0576040517f08c379a00000000000000000000000000000000000000000000000000000000081526004016116c79061281f565b60405180910390fd5b6000816020015103611717576040517f08c379a000000000000000000000000000000000000000000000000000000000815260040161170e9061288b565b60405180910390fd5b6002600083815260200190815260200160002060009054906101000a900460ff1615611778576040517f08c379a000000000000000000000000000000000000000000000000000000000815260040161176f906128f7565b60405180910390fd5b60016002600084815260200190815260200160002060006101000a81548160ff021916908315150217905550813373ffffffffffffffffffffffffffffffffffffffff167fc294e248583a7bb9a6d0371d5e0e2ca64319f73ed8379cc7ec54fb14492f4ed360405160405180910390a35050565b6060600860008373ffffffffffffffffffffffffffffffffffffffff1673ffffffffffffffffffffffffffffffffffffffff168152602001908152602001600020805480602002602001604051908101604052809291908181526020016000905b8282101561195357838290600052602060002090600602016040518060c00160405290816000820154815260200160018201548152602001600282015481526020016003820160009054906101000a900473ffffffffffffffffffffffffffffffffffffffff1673ffffffffffffffffffffffffffffffffffffffff1673ffffffffffffffffffffffffffffffffffffffff1681526020016004820160009054906101000a900473ffffffffffffffffffffffffffffffffffffffff1673ffffffffffffffffffffffffffffffffffffffff1673ffffffffffffffffffffffffffffffffffffffff1681526020016005820154815250508152602001906001019061184d565b505050509050919050565b600360003373ffffffffffffffffffffffffffffffffffffffff1673ffffffffffffffffffffffffffffffffffffffff16815260200190815260200160002060009054906101000a900460ff166119ea576040517f08c379a00000000000000000000000000000000000000000000000000000000081526004016119e190612963565b60405180910390fd5b6000600560003373ffffffffffffffffffffffffffffffffffffffff1673ffffffffffffffffffffffffffffffffffffffff16815260200190815260200160002060008373ffffffffffffffffffffffffffffffffffffffff1673ffffffffffffffffffffffffffffffffffffffff16815260200190815260200160002060006101000a81548160ff0219169083151502179055506000600660003373ffffffffffffffffffffffffffffffffffffffff1673ffffffffffffffffffffffffffffffffffffffff168152602001908152602001600020905060005b8180549050811015611c42578273ffffffffffffffffffffffffffffffffffffffff16828281548110611afb57611afa612562565b5b9060005260206000200160009054906101000a900473ffffffffffffffffffffffffffffffffffffffff1673ffffffffffffffffffffffffffffffffffffffff1603611c35578160018380549050611b5391906125c0565b81548110611b6457611b63612562565b5b9060005260206000200160009054906101000a900473ffffffffffffffffffffffffffffffffffffffff16828281548110611ba257611ba1612562565b5b9060005260206000200160006101000a81548173ffffffffffffffffffffffffffffffffffffffff021916908373ffffffffffffffffffffffffffffffffffffffff16021790555081805480611bfb57611bfa6125f4565b5b6001900381819060005260206000200160006101000a81549073ffffffffffffffffffffffffffffffffffffffff02191690559055611c42565b8080600101915050611ac5565b505050565b611c4f611cca565b600073ffffffffffffffffffffffffffffffffffffffff168173ffffffffffffffffffffffffffffffffffffffff1603611cbe576040517f08c379a0000000000000000000000000000000000000000000000000000000008152600401611cb5906129f5565b60405180910390fd5b611cc781611d48565b50565b611cd2611e0c565b73ffffffffffffffffffffffffffffffffffffffff16611cf0611423565b73ffffffffffffffffffffffffffffffffffffffff1614611d46576040517f08c379a0000000000000000000000000000000000000000000000000000000008152600401611d3d90612a61565b60405180910390fd5b565b60008060009054906101000a900473ffffffffffffffffffffffffffffffffffffffff169050816000806101000a81548173ffffffffffffffffffffffffffffffffffffffff021916908373ffffffffffffffffffffffffffffffffffffffff1602179055508173ffffffffffffffffffffffffffffffffffffffff168173ffffffffffffffffffffffffffffffffffffffff167f8be0079c531659141344cd1fd0a4f28419497f9722a3daafe3b4186f6b6457e060405160405180910390a35050565b600033905090565b600080fd5b600073ffffffffffffffffffffffffffffffffffffffff82169050919050565b6000611e4482611e19565b9050919050565b611e5481611e39565b8114611e5f57600080fd5b50565b600081359050611e7181611e4b565b92915050565b6000819050919050565b611e8a81611e77565b8114611e9557600080fd5b50565b600081359050611ea781611e81565b92915050565b60008060408385031215611ec457611ec3611e14565b5b6000611ed285828601611e62565b9250506020611ee385828601611e98565b9150509250929050565b6000819050919050565b611f0081611eed565b82525050565b611f0f81611e77565b82525050565b611f1e81611e39565b82525050565b600060c082019050611f396000830189611ef7565b611f466020830188611f06565b611f536040830187611f06565b611f606060830186611f15565b611f6d6080830185611f15565b611f7a60a0830184611ef7565b979650505050505050565b60008060408385031215611f9c57611f9b611e14565b5b6000611faa85828601611e62565b9250506020611fbb85828601611e62565b9150509250929050565b60008115159050919050565b611fda81611fc5565b82525050565b6000602082019050611ff56000830184611fd1565b92915050565b60006020828403121561201157612010611e14565b5b600061201f84828501611e62565b91505092915050565b61203181611eed565b811461203c57600080fd5b50565b60008135905061204e81612028565b92915050565b60006020828403121561206a57612069611e14565b5b60006120788482850161203f565b91505092915050565b600081519050919050565b600082825260208201905092915050565b6000819050602082019050919050565b6120b681611e39565b82525050565b60006120c883836120ad565b60208301905092915050565b6000602082019050919050565b60006120ec82612081565b6120f6818561208c565b93506121018361209d565b8060005b8381101561213257815161211988826120bc565b9750612124836120d4565b925050600181019050612105565b5085935050505092915050565b6000602082019050818103600083015261215981846120e1565b905092915050565b61216a81611fc5565b811461217557600080fd5b50565b60008135905061218781612161565b92915050565b600080604083850312156121a4576121a3611e14565b5b60006121b285828601611e62565b92505060206121c385828601612178565b9150509250929050565b600080604083850312156121e4576121e3611e14565b5b60006121f28582860161203f565b92505060206122038582860161203f565b9150509250929050565b6000806000806080858703121561222757612226611e14565b5b60006122358782880161203f565b94505060206122468782880161203f565b935050604061225787828801611e62565b925050606061226887828801611e98565b91505092959194509250565b60006020828403121561228a57612289611e14565b5b600061229884828501611e98565b91505092915050565b60006020820190506122b66000830184611f15565b92915050565b6000806000606084860312156122d5576122d4611e14565b5b60006122e386828701611e62565b93505060206122f486828701611e62565b925050604061230586828701611e98565b9150509250925092565b600081519050919050565b600082825260208201905092915050565b6000819050602082019050919050565b61234481611eed565b82525050565b61235381611e77565b82525050565b60c08201600082015161236f600085018261233b565b506020820151612382602085018261234a565b506040820151612395604085018261234a565b5060608201516123a860608501826120ad565b5060808201516123bb60808501826120ad565b5060a08201516123ce60a085018261233b565b50505050565b60006123e08383612359565b60c08301905092915050565b6000602082019050919050565b60006124048261230f565b61240e818561231a565b93506124198361232b565b8060005b8381101561244a57815161243188826123d4565b975061243c836123ec565b92505060018101905061241d565b5085935050505092915050565b6000602082019050818103600083015261247181846123f9565b905092915050565b600082825260208201905092915050565b7f4f6e6c79206973737565722063616e2061646420757365720000000000000000600082015250565b60006124c0601883612479565b91506124cb8261248a565b602082019050919050565b600060208201905081810360008301526124ef816124b3565b9050919050565b7f6e6f207065726d697373696f6e00000000000000000000000000000000000000600082015250565b600061252c600d83612479565b9150612537826124f6565b602082019050919050565b6000602082019050818103600083015261255b8161251f565b9050919050565b7f4e487b7100000000000000000000000000000000000000000000000000000000600052603260045260246000fd5b7f4e487b7100000000000000000000000000000000000000000000000000000000600052601160045260246000fd5b60006125cb82611e77565b91506125d683611e77565b92508282039050818111156125ee576125ed612591565b5b92915050565b7f4e487b7100000000000000000000000000000000000000000000000000000000600052603160045260246000fd5b7f4e6f7420617574686f72697a656420746f206973737565000000000000000000600082015250565b6000612659601783612479565b915061266482612623565b602082019050919050565b600060208201905081810360008301526126888161264c565b9050919050565b7f5573657220646f6573206e6f742062656c6f6e6720746f2074686973204f7267600082015250565b60006126c5602083612479565b91506126d08261268f565b602082019050919050565b600060208201905081810360008301526126f4816126b8565b9050919050565b7f4365727469666963617465204944206578697374730000000000000000000000600082015250565b6000612731601583612479565b915061273c826126fb565b602082019050919050565b6000602082019050818103600083015261276081612724565b9050919050565b7f457870697279206d757374206265206675747572650000000000000000000000600082015250565b600061279d601583612479565b91506127a882612767565b602082019050919050565b600060208201905081810360008301526127cc81612790565b9050919050565b7f4e6f7420617574686f72697a656420746f207265766f6b650000000000000000600082015250565b6000612809601883612479565b9150612814826127d3565b602082019050919050565b60006020820190508181036000830152612838816127fc565b9050919050565b7f436572746966696361746520646f6573206e6f74206578697374000000000000600082015250565b6000612875601a83612479565b91506128808261283f565b602082019050919050565b600060208201905081810360008301526128a481612868565b9050919050565b7f416c7265616479207265766f6b65640000000000000000000000000000000000600082015250565b60006128e1600f83612479565b91506128ec826128ab565b602082019050919050565b60006020820190508181036000830152612910816128d4565b9050919050565b7f4f6e6c79206973737565722063616e2072656d6f766520757365720000000000600082015250565b600061294d601b83612479565b915061295882612917565b602082019050919050565b6000602082019050818103600083015261297c81612940565b9050919050565b7f4f776e61626c653a206e6577206f776e657220697320746865207a65726f206160008201527f6464726573730000000000000000000000000000000000000000000000000000602082015250565b60006129df602683612479565b91506129ea82612983565b604082019050919050565b60006020820190508181036000830152612a0e816129d2565b9050919050565b7f4f776e61626c653a2063616c6c6572206973206e6f7420746865206f776e6572600082015250565b6000612a4b602083612479565b9150612a5682612a15565b602082019050919050565b60006020820190508181036000830152612a7a81612a3e565b905091905056fea2646970667358221220e86b92820c367ab3894f2751a4ee0c65af46ea561fa397bb6de3c48e79b777dc64736f6c634300081c0033",
  "linkReferences": {},
  "deployedLinkReferences": {}
}